{
  "_format": "hh-sol-artifact-1",
  "contractName": "TokenFactory",
  "sourceName": "contracts/token-factory.sol",
  "abi": [
    {
      "anonymous": false,
      "inputs": [
        {
          "indexed": true,
          "internalType": "address",
          "name": "tokenAddress",
          "type": "address"
        },
        {
          "indexed": true,
          "internalType": "address",
          "name": "creator",
          "type": "address"
        }
      ],
      "name": "FungibleTokenCreated",
      "type": "event"
    },
    {
      "anonymous": false,
      "inputs": [
        {
          "indexed": true,
          "internalType": "address",
          "name": "NftAddress",
          "type": "address"
        },
        {
          "indexed": true,
          "internalType": "address",
          "name": "creator",
          "type": "address"
        }
      ],
      "name": "NftCreated",
      "type": "event"
    },
    {
      "inputs": [
        {
          "internalType": "string",
          "name": "_name",
          "type": "string"
        },
        {
          "internalType": "string",
          "name": "_symbol",
          "type": "string"
        },
        {
          "internalType": "uint256",
          "name": "_initialSupply",
          "type": "uint256"
        },
        {
          "internalType": "string",
          "name": "_description",
          "type": "string"
        },
        {
          "internalType": "uint8",
          "name": "_decimals",
          "type": "uint8"
        }
      ],
      "name": "createFungibleToken",
      "outputs": [],
      "stateMutability": "nonpayable",
      "type": "function"
    },
    {
      "inputs": [
        {
          "internalType": "string",
          "name": "_name",
          "type": "string"
        },
        {
          "internalType": "string",
          "name": "_symbol",
          "type": "string"
        },
        {
          "internalType": "string",
          "name": "_uri",
          "type": "string"
        },
        {
          "internalType": "string",
          "name": "_description",
          "type": "string"
        }
      ],
      "name": "createNFT",
      "outputs": [],
      "stateMutability": "nonpayable",
      "type": "function"
    },
    {
      "inputs": [],
      "name": "getAllFungibleToken",
      "outputs": [
        {
          "components": [
            {
              "internalType": "string",
              "name": "name",
              "type": "string"
            },
            {
              "internalType": "string",
              "name": "symbol",
              "type": "string"
            },
            {
              "internalType": "address",
              "name": "contractAdd",
              "type": "address"
            },
            {
              "internalType": "uint256",
              "name": "totalSupply",
              "type": "uint256"
            },
            {
              "internalType": "string",
              "name": "description",
              "type": "string"
            },
            {
              "internalType": "uint8",
              "name": "decimals",
              "type": "uint8"
            }
          ],
          "internalType": "struct TokenFactory.FungibleTokenDetails[]",
          "name": "",
          "type": "tuple[]"
        }
      ],
      "stateMutability": "view",
      "type": "function"
    },
    {
      "inputs": [],
      "name": "getAllNftContract",
      "outputs": [
        {
          "components": [
            {
              "internalType": "string",
              "name": "name",
              "type": "string"
            },
            {
              "internalType": "string",
              "name": "symbol",
              "type": "string"
            },
            {
              "internalType": "address",
              "name": "contractAdd",
              "type": "address"
            },
            {
              "internalType": "string",
              "name": "description",
              "type": "string"
            }
          ],
          "internalType": "struct TokenFactory.NFTDetails[]",
          "name": "",
          "type": "tuple[]"
        }
      ],
      "stateMutability": "view",
      "type": "function"
    },
    {
      "inputs": [
        {
          "internalType": "address",
          "name": "addr",
          "type": "address"
        }
      ],
      "name": "getCreatedFungibleTokenByAddress",
      "outputs": [
        {
          "components": [
            {
              "internalType": "string",
              "name": "name",
              "type": "string"
            },
            {
              "internalType": "string",
              "name": "symbol",
              "type": "string"
            },
            {
              "internalType": "address",
              "name": "contractAdd",
              "type": "address"
            },
            {
              "internalType": "uint256",
              "name": "totalSupply",
              "type": "uint256"
            },
            {
              "internalType": "string",
              "name": "description",
              "type": "string"
            },
            {
              "internalType": "uint8",
              "name": "decimals",
              "type": "uint8"
            }
          ],
          "internalType": "struct TokenFactory.FungibleTokenDetails[]",
          "name": "",
          "type": "tuple[]"
        }
      ],
      "stateMutability": "view",
      "type": "function"
    },
    {
      "inputs": [
        {
          "internalType": "address",
          "name": "addr",
          "type": "address"
        }
      ],
      "name": "getCreatedNFTByAddress",
      "outputs": [
        {
          "components": [
            {
              "internalType": "string",
              "name": "name",
              "type": "string"
            },
            {
              "internalType": "string",
              "name": "symbol",
              "type": "string"
            },
            {
              "internalType": "address",
              "name": "contractAdd",
              "type": "address"
            },
            {
              "internalType": "string",
              "name": "description",
              "type": "string"
            }
          ],
          "internalType": "struct TokenFactory.NFTDetails[]",
          "name": "",
          "type": "tuple[]"
        }
      ],
      "stateMutability": "view",
      "type": "function"
    }
  ],
  "bytecode": "0x608060405234801561001057600080fd5b506142b3806100206000396000f3fe60806040523480156200001157600080fd5b50600436106200006a5760003560e01c8063180c0f87146200006f5780633eded401146200009e5780633ee513c714620000b75780635016272b14620000ce5780636d7222d614620000d8578063b9567dd414620000f1575b600080fd5b620000866200008036600462000efb565b62000108565b60405162000095919062000f75565b60405180910390f35b620000a86200037e565b6040516200009591906200104c565b620000a8620000c836600462000efb565b620005c4565b6200008662000815565b620000ef620000e9366004620011a7565b62000a6c565b005b620000ef6200010236600462001261565b62000c6e565b6001600160a01b0381166000908152600360209081526040808320805482518185028101850190935280835260609492939192909184015b828210156200037357838290600052602060002090600602016040518060c0016040529081600082018054620001769062001319565b80601f0160208091040260200160405190810160405280929190818152602001828054620001a49062001319565b8015620001f55780601f10620001c957610100808354040283529160200191620001f5565b820191906000526020600020905b815481529060010190602001808311620001d757829003601f168201915b50505050508152602001600182018054620002109062001319565b80601f01602080910402602001604051908101604052809291908181526020018280546200023e9062001319565b80156200028f5780601f1062000263576101008083540402835291602001916200028f565b820191906000526020600020905b8154815290600101906020018083116200027157829003601f168201915b505050918352505060028201546001600160a01b0316602082015260038201546040820152600482018054606090920191620002cb9062001319565b80601f0160208091040260200160405190810160405280929190818152602001828054620002f99062001319565b80156200034a5780601f106200031e576101008083540402835291602001916200034a565b820191906000526020600020905b8154815290600101906020018083116200032c57829003601f168201915b50505091835250506005919091015460ff16602091820152908252600192909201910162000140565b505050509050919050565b60606000805480602002602001604051908101604052809291908181526020016000905b82821015620005bb5783829060005260206000209060040201604051806080016040529081600082018054620003d89062001319565b80601f0160208091040260200160405190810160405280929190818152602001828054620004069062001319565b8015620004575780601f106200042b5761010080835404028352916020019162000457565b820191906000526020600020905b8154815290600101906020018083116200043957829003601f168201915b50505050508152602001600182018054620004729062001319565b80601f0160208091040260200160405190810160405280929190818152602001828054620004a09062001319565b8015620004f15780601f10620004c557610100808354040283529160200191620004f1565b820191906000526020600020905b815481529060010190602001808311620004d357829003601f168201915b505050918352505060028201546001600160a01b03166020820152600382018054604090920191620005239062001319565b80601f0160208091040260200160405190810160405280929190818152602001828054620005519062001319565b8015620005a25780601f106200057657610100808354040283529160200191620005a2565b820191906000526020600020905b8154815290600101906020018083116200058457829003601f168201915b50505050508152505081526020019060010190620003a2565b50505050905090565b6001600160a01b0381166000908152600260209081526040808320805482518185028101850190935280835260609492939192909184015b82821015620003735783829060005260206000209060040201604051806080016040529081600082018054620006329062001319565b80601f0160208091040260200160405190810160405280929190818152602001828054620006609062001319565b8015620006b15780601f106200068557610100808354040283529160200191620006b1565b820191906000526020600020905b8154815290600101906020018083116200069357829003601f168201915b50505050508152602001600182018054620006cc9062001319565b80601f0160208091040260200160405190810160405280929190818152602001828054620006fa9062001319565b80156200074b5780601f106200071f576101008083540402835291602001916200074b565b820191906000526020600020905b8154815290600101906020018083116200072d57829003601f168201915b505050918352505060028201546001600160a01b031660208201526003820180546040909201916200077d9062001319565b80601f0160208091040260200160405190810160405280929190818152602001828054620007ab9062001319565b8015620007fc5780601f10620007d057610100808354040283529160200191620007fc565b820191906000526020600020905b815481529060010190602001808311620007de57829003601f168201915b50505050508152505081526020019060010190620005fc565b60606001805480602002602001604051908101604052809291908181526020016000905b82821015620005bb57838290600052602060002090600602016040518060c00160405290816000820180546200086f9062001319565b80601f01602080910402602001604051908101604052809291908181526020018280546200089d9062001319565b8015620008ee5780601f10620008c257610100808354040283529160200191620008ee565b820191906000526020600020905b815481529060010190602001808311620008d057829003601f168201915b50505050508152602001600182018054620009099062001319565b80601f0160208091040260200160405190810160405280929190818152602001828054620009379062001319565b8015620009885780601f106200095c5761010080835404028352916020019162000988565b820191906000526020600020905b8154815290600101906020018083116200096a57829003601f168201915b505050918352505060028201546001600160a01b0316602082015260038201546040820152600482018054606090920191620009c49062001319565b80601f0160208091040260200160405190810160405280929190818152602001828054620009f29062001319565b801562000a435780601f1062000a175761010080835404028352916020019162000a43565b820191906000526020600020905b81548152906001019060200180831162000a2557829003601f168201915b50505091835250506005919091015460ff16602091820152908252600192909201910162000839565b600084848460405162000a7f9062000edf565b62000a8d9392919062001355565b604051809103906000f08015801562000aaa573d6000803e3d6000fd5b50905062000ae26040518060800160405280606081526020016060815260200160006001600160a01b03168152602001606081525090565b85815260208082018690526001600160a01b038316604080840191909152606083018590523360009081526002835290812080546001810182559082529190208251839260040290910190819062000b3b9082620013f1565b506020820151600182019062000b529082620013f1565b5060408201516002820180546001600160a01b0319166001600160a01b039092169190911790556060820151600382019062000b8f9082620013f1565b505060008054600181018255908052825183925060049091027f290decd9548b62a8d60345a988386fc84ba6bc95484008f6362f93160ef3e5630190819062000bd99082620013f1565b506020820151600182019062000bf09082620013f1565b5060408201516002820180546001600160a01b0319166001600160a01b039092169190911790556060820151600382019062000c2d9082620013f1565b50506040513391506001600160a01b038416907f5c68e21fd3dc359939fba4e82bb6bf4f3f390d99ff7674cb693fd0fa72ce577690600090a3505050505050565b60008585858460405162000c829062000eed565b62000c919493929190620014be565b604051809103906000f08015801562000cae573d6000803e3d6000fd5b50905062000cf76040518060c00160405280606081526020016060815260200160006001600160a01b031681526020016000815260200160608152602001600060ff1681525090565b6001600160a01b0382166040808301919091528782526020808301889052606083018790526080830186905260ff851660a084015233600090815260038252918220805460018101825590835291208251839260060290910190819062000d5f9082620013f1565b506020820151600182019062000d769082620013f1565b5060408201516002820180546001600160a01b0319166001600160a01b03909216919091179055606082015160038201556080820151600482019062000dbd9082620013f1565b5060a091909101516005909101805460ff90921660ff19909216919091179055600180548082018255600091909152815182916006027fb10e2d527612073b26eecdfd717e6a320cf44b4afac2b0732d9fcbe2b7fa0cf60190819062000e249082620013f1565b506020820151600182019062000e3b9082620013f1565b5060408201516002820180546001600160a01b0319166001600160a01b03909216919091179055606082015160038201556080820151600482019062000e829082620013f1565b5060a091909101516005909101805460ff191660ff90921691909117905560405133906001600160a01b038416907fd6607f8ac06a1bf819b82ddfc4bf103fcbf56f5dfa8b335cd6ffd15682e22a1390600090a350505050505050565b611db4806200150383390190565b610fc780620032b783390190565b60006020828403121562000f0e57600080fd5b81356001600160a01b038116811462000f2657600080fd5b9392505050565b6000815180845260005b8181101562000f555760208185018101518683018201520162000f37565b506000602082860101526020601f19601f83011685010191505092915050565b60006020808301818452808551808352604092508286019150828160051b87010184880160005b838110156200103e57603f19898403018552815160c0815181865262000fc58287018262000f2d565b915050888201518582038a87015262000fdf828262000f2d565b838a01516001600160a01b0316878b015260608085015190880152608080850151888303828a0152919350915062001018838262000f2d565b60a09485015160ff16979094019690965250509487019492509086019060010162000f9c565b509098975050505050505050565b60006020808301818452808551808352604092508286019150828160051b87010184880160005b838110156200103e57603f198984030185528151608081518186526200109c8287018262000f2d565b915050888201518582038a870152620010b6828262000f2d565b838a01516001600160a01b0316878b0152606093840151878203948801949094529150620010e79050818362000f2d565b96890196945050509086019060010162001073565b634e487b7160e01b600052604160045260246000fd5b600082601f8301126200112457600080fd5b813567ffffffffffffffff80821115620011425762001142620010fc565b604051601f8301601f19908116603f011681019082821181831017156200116d576200116d620010fc565b816040528381528660208588010111156200118757600080fd5b836020870160208301376000602085830101528094505050505092915050565b60008060008060808587031215620011be57600080fd5b843567ffffffffffffffff80821115620011d757600080fd5b620011e58883890162001112565b95506020870135915080821115620011fc57600080fd5b6200120a8883890162001112565b945060408701359150808211156200122157600080fd5b6200122f8883890162001112565b935060608701359150808211156200124657600080fd5b50620012558782880162001112565b91505092959194509250565b600080600080600060a086880312156200127a57600080fd5b853567ffffffffffffffff808211156200129357600080fd5b620012a189838a0162001112565b96506020880135915080821115620012b857600080fd5b620012c689838a0162001112565b9550604088013594506060880135915080821115620012e457600080fd5b50620012f38882890162001112565b925050608086013560ff811681146200130b57600080fd5b809150509295509295909350565b600181811c908216806200132e57607f821691505b6020821081036200134f57634e487b7160e01b600052602260045260246000fd5b50919050565b6060815260006200136a606083018662000f2d565b82810360208401526200137e818662000f2d565b9050828103604084015262001394818562000f2d565b9695505050505050565b601f821115620013ec57600081815260208120601f850160051c81016020861015620013c75750805b601f850160051c820191505b81811015620013e857828155600101620013d3565b5050505b505050565b815167ffffffffffffffff8111156200140e576200140e620010fc565b62001426816200141f845462001319565b846200139e565b602080601f8311600181146200145e5760008415620014455750858301515b600019600386901b1c1916600185901b178555620013e8565b600085815260208120601f198616915b828110156200148f578886015182559484019460019091019084016200146e565b5085821015620014ae5787850151600019600388901b60f8161c191681555b5050505050600190811b01905550565b608081526000620014d3608083018762000f2d565b8281036020840152620014e7818762000f2d565b91505083604083015260ff831660608301529594505050505056fe60806040523480156200001157600080fd5b5060405162001db438038062001db4833981016040819052620000349162000775565b8282600062000044838262000894565b50600162000053828262000894565b5050600880546001600160a01b03191633179055506200007432826200007d565b50505062000a26565b6008546001600160a01b031633146200009557600080fd5b600754620000ae9083906001600160801b03166200010a565b600754620000c6906001600160801b03168262000130565b600780546001600160801b0316906000620000e18362000960565b91906101000a8154816001600160801b0302191690836001600160801b03160217905550505050565b6200012c8282604051806020016040528060008152506200018260201b60201c565b5050565b60008281526006602052604090206200014a828262000894565b506040518281527ff8e1a15aba9398e019f0b49df1a4fde98ee17ae345cb5f6b5e2c27f5033e8ce79060200160405180910390a15050565b6200018e8383620001a2565b6200019d600084848462000210565b505050565b6001600160a01b038216620001d257604051633250574960e11b8152600060048201526024015b60405180910390fd5b6000620001e183838362000347565b90506001600160a01b038116156200019d576040516339e3563760e11b815260006004820152602401620001c9565b6001600160a01b0383163b156200034157604051630a85bd0160e11b81526001600160a01b0384169063150b7a0290620002559033908890879087906004016200099d565b6020604051808303816000875af192505050801562000293575060408051601f3d908101601f191682019092526200029091810190620009f3565b60015b62000301573d808015620002c4576040519150601f19603f3d011682016040523d82523d6000602084013e620002c9565b606091505b508051600003620002f957604051633250574960e11b81526001600160a01b0385166004820152602401620001c9565b805181602001fd5b6001600160e01b03198116630a85bd0160e11b146200033f57604051633250574960e11b81526001600160a01b0385166004820152602401620001c9565b505b50505050565b6000828152600260205260408120546001600160a01b039081169083161562000377576200037781848662000446565b6001600160a01b03811615620003b757620003966000858180620004b0565b6001600160a01b038116600090815260036020526040902080546000190190555b6001600160a01b03851615620003e7576001600160a01b0385166000908152600360205260409020805460010190555b60008481526002602052604080822080546001600160a01b0319166001600160a01b0389811691821790925591518793918516917fddf252ad1be2c89b69c2b068fc378daa952ba7f163c4a11628f55a4df523b3ef91a4949350505050565b62000453838383620005de565b6200019d576001600160a01b0383166200048457604051637e27328960e01b815260048101829052602401620001c9565b60405163177e802f60e01b81526001600160a01b038316600482015260248101829052604401620001c9565b8080620004c557506001600160a01b03821615155b15620005ae576000620004d88462000667565b90506001600160a01b03831615801590620005055750826001600160a01b0316816001600160a01b031614155b80156200053857506001600160a01b0380821660009081526005602090815260408083209387168352929052205460ff16155b15620005635760405163a9fbf51f60e01b81526001600160a01b0384166004820152602401620001c9565b8115620005ac5783856001600160a01b0316826001600160a01b03167f8c5be1e5ebec7d5bd14f71427d1e84f3dd0314c0f7b2291e5b200ac8c7c3b92560405160405180910390a45b505b5050600090815260046020526040902080546001600160a01b0319166001600160a01b0392909216919091179055565b60006001600160a01b038316158015906200065f5750826001600160a01b0316846001600160a01b031614806200063a57506001600160a01b0380851660009081526005602090815260408083209387168352929052205460ff165b806200065f57506000828152600460205260409020546001600160a01b038481169116145b949350505050565b6000818152600260205260408120546001600160a01b031680620006a257604051637e27328960e01b815260048101849052602401620001c9565b92915050565b634e487b7160e01b600052604160045260246000fd5b60005b83811015620006db578181015183820152602001620006c1565b50506000910152565b600082601f830112620006f657600080fd5b81516001600160401b0380821115620007135762000713620006a8565b604051601f8301601f19908116603f011681019082821181831017156200073e576200073e620006a8565b816040528381528660208588010111156200075857600080fd5b6200076b846020830160208901620006be565b9695505050505050565b6000806000606084860312156200078b57600080fd5b83516001600160401b0380821115620007a357600080fd5b620007b187838801620006e4565b94506020860151915080821115620007c857600080fd5b620007d687838801620006e4565b93506040860151915080821115620007ed57600080fd5b50620007fc86828701620006e4565b9150509250925092565b600181811c908216806200081b57607f821691505b6020821081036200083c57634e487b7160e01b600052602260045260246000fd5b50919050565b601f8211156200019d57600081815260208120601f850160051c810160208610156200086b5750805b601f850160051c820191505b818110156200088c5782815560010162000877565b505050505050565b81516001600160401b03811115620008b057620008b0620006a8565b620008c881620008c1845462000806565b8462000842565b602080601f831160018114620009005760008415620008e75750858301515b600019600386901b1c1916600185901b1785556200088c565b600085815260208120601f198616915b82811015620009315788860151825594840194600190910190840162000910565b5085821015620009505787850151600019600388901b60f8161c191681555b5050505050600190811b01905550565b60006001600160801b038281166002600160801b031981016200099357634e487b7160e01b600052601160045260246000fd5b6001019392505050565b600060018060a01b038087168352808616602084015250836040830152608060608301528251806080840152620009dc8160a0850160208701620006be565b601f01601f19169190910160a00195945050505050565b60006020828403121562000a0657600080fd5b81516001600160e01b03198116811462000a1f57600080fd5b9392505050565b61137e8062000a366000396000f3fe608060405234801561001057600080fd5b50600436106100ea5760003560e01c806370a082311161008c578063b88d4fde11610066578063b88d4fde146101e1578063c87b56dd146101f4578063d204c45e14610207578063e985e9c51461021a57600080fd5b806370a08231146101a557806395d89b41146101c6578063a22cb465146101ce57600080fd5b8063095ea7b3116100c8578063095ea7b31461015757806323b872dd1461016c57806342842e0e1461017f5780636352211e1461019257600080fd5b806301ffc9a7146100ef57806306fdde0314610117578063081812fc1461012c575b600080fd5b6101026100fd366004610e34565b61022d565b60405190151581526020015b60405180910390f35b61011f61023e565b60405161010e9190610ea1565b61013f61013a366004610eb4565b6102d0565b6040516001600160a01b03909116815260200161010e565b61016a610165366004610ee9565b6102f9565b005b61016a61017a366004610f13565b610308565b61016a61018d366004610f13565b610398565b61013f6101a0366004610eb4565b6103b8565b6101b86101b3366004610f4f565b6103c3565b60405190815260200161010e565b61011f61040b565b61016a6101dc366004610f6a565b61041a565b61016a6101ef366004611032565b610425565b61011f610202366004610eb4565b61043c565b61016a6102153660046110ae565b610447565b610102610228366004611110565b6104cd565b6000610238826104fb565b92915050565b60606000805461024d90611143565b80601f016020809104026020016040519081016040528092919081815260200182805461027990611143565b80156102c65780601f1061029b576101008083540402835291602001916102c6565b820191906000526020600020905b8154815290600101906020018083116102a957829003601f168201915b5050505050905090565b60006102db82610520565b506000828152600460205260409020546001600160a01b0316610238565b610304828233610559565b5050565b6001600160a01b03821661033757604051633250574960e11b8152600060048201526024015b60405180910390fd5b6000610344838333610566565b9050836001600160a01b0316816001600160a01b031614610392576040516364283d7b60e01b81526001600160a01b038086166004830152602482018490528216604482015260640161032e565b50505050565b6103b383838360405180602001604052806000815250610425565b505050565b600061023882610520565b60006001600160a01b0382166103ef576040516322718ad960e21b81526000600482015260240161032e565b506001600160a01b031660009081526003602052604090205490565b60606001805461024d90611143565b61030433838361065f565b610430848484610308565b610392848484846106fe565b606061023882610827565b6008546001600160a01b0316331461045e57600080fd5b6007546104759083906001600160801b0316610938565b60075461048b906001600160801b031682610952565b600780546001600160801b03169060006104a48361117d565b91906101000a8154816001600160801b0302191690836001600160801b03160217905550505050565b6001600160a01b03918216600090815260056020908152604080832093909416825291909152205460ff1690565b60006001600160e01b03198216632483248360e11b14806102385750610238826109a2565b6000818152600260205260408120546001600160a01b03168061023857604051637e27328960e01b81526004810184905260240161032e565b6103b383838360016109f2565b6000828152600260205260408120546001600160a01b039081169083161561059357610593818486610af8565b6001600160a01b038116156105d1576105b06000856000806109f2565b6001600160a01b038116600090815260036020526040902080546000190190555b6001600160a01b03851615610600576001600160a01b0385166000908152600360205260409020805460010190555b60008481526002602052604080822080546001600160a01b0319166001600160a01b0389811691821790925591518793918516917fddf252ad1be2c89b69c2b068fc378daa952ba7f163c4a11628f55a4df523b3ef91a4949350505050565b6001600160a01b03821661069157604051630b61174360e31b81526001600160a01b038316600482015260240161032e565b6001600160a01b03838116600081815260056020908152604080832094871680845294825291829020805460ff191686151590811790915591519182527f17307eab39ab6107e8899845ad3d59bd9653f200f220920489ca2b5937696c31910160405180910390a3505050565b6001600160a01b0383163b1561039257604051630a85bd0160e11b81526001600160a01b0384169063150b7a02906107409033908890879087906004016111b1565b6020604051808303816000875af192505050801561077b575060408051601f3d908101601f19168201909252610778918101906111ee565b60015b6107e4573d8080156107a9576040519150601f19603f3d011682016040523d82523d6000602084013e6107ae565b606091505b5080516000036107dc57604051633250574960e11b81526001600160a01b038516600482015260240161032e565b805181602001fd5b6001600160e01b03198116630a85bd0160e11b1461082057604051633250574960e11b81526001600160a01b038516600482015260240161032e565b5050505050565b606061083282610520565b506000828152600660205260408120805461084c90611143565b80601f016020809104026020016040519081016040528092919081815260200182805461087890611143565b80156108c55780601f1061089a576101008083540402835291602001916108c5565b820191906000526020600020905b8154815290600101906020018083116108a857829003601f168201915b5050505050905060006108e360408051602081019091526000815290565b905080516000036108f5575092915050565b81511561092757808260405160200161090f92919061120b565b60405160208183030381529060405292505050919050565b61093084610b5c565b949350505050565b610304828260405180602001604052806000815250610bd1565b600082815260066020526040902061096a8282611288565b506040518281527ff8e1a15aba9398e019f0b49df1a4fde98ee17ae345cb5f6b5e2c27f5033e8ce79060200160405180910390a15050565b60006001600160e01b031982166380ac58cd60e01b14806109d357506001600160e01b03198216635b5e139f60e01b145b8061023857506301ffc9a760e01b6001600160e01b0319831614610238565b8080610a0657506001600160a01b03821615155b15610ac8576000610a1684610520565b90506001600160a01b03831615801590610a425750826001600160a01b0316816001600160a01b031614155b8015610a555750610a5381846104cd565b155b15610a7e5760405163a9fbf51f60e01b81526001600160a01b038416600482015260240161032e565b8115610ac65783856001600160a01b0316826001600160a01b03167f8c5be1e5ebec7d5bd14f71427d1e84f3dd0314c0f7b2291e5b200ac8c7c3b92560405160405180910390a45b505b5050600090815260046020526040902080546001600160a01b0319166001600160a01b0392909216919091179055565b610b03838383610be8565b6103b3576001600160a01b038316610b3157604051637e27328960e01b81526004810182905260240161032e565b60405163177e802f60e01b81526001600160a01b03831660048201526024810182905260440161032e565b6060610b6782610520565b506000610b7f60408051602081019091526000815290565b90506000815111610b9f5760405180602001604052806000815250610bca565b80610ba984610c4b565b604051602001610bba92919061120b565b6040516020818303038152906040525b9392505050565b610bdb8383610cde565b6103b360008484846106fe565b60006001600160a01b038316158015906109305750826001600160a01b0316846001600160a01b03161480610c225750610c2284846104cd565b806109305750506000908152600460205260409020546001600160a01b03908116911614919050565b60606000610c5883610d43565b600101905060008167ffffffffffffffff811115610c7857610c78610fa6565b6040519080825280601f01601f191660200182016040528015610ca2576020820181803683370190505b5090508181016020015b600019016f181899199a1a9b1b9c1cb0b131b232b360811b600a86061a8153600a8504945084610cac57509392505050565b6001600160a01b038216610d0857604051633250574960e11b81526000600482015260240161032e565b6000610d1683836000610566565b90506001600160a01b038116156103b3576040516339e3563760e11b81526000600482015260240161032e565b60008072184f03e93ff9f4daa797ed6e38ed64bf6a1f0160401b8310610d825772184f03e93ff9f4daa797ed6e38ed64bf6a1f0160401b830492506040015b6d04ee2d6d415b85acef81000000008310610dae576d04ee2d6d415b85acef8100000000830492506020015b662386f26fc100008310610dcc57662386f26fc10000830492506010015b6305f5e1008310610de4576305f5e100830492506008015b6127108310610df857612710830492506004015b60648310610e0a576064830492506002015b600a83106102385760010192915050565b6001600160e01b031981168114610e3157600080fd5b50565b600060208284031215610e4657600080fd5b8135610bca81610e1b565b60005b83811015610e6c578181015183820152602001610e54565b50506000910152565b60008151808452610e8d816020860160208601610e51565b601f01601f19169290920160200192915050565b602081526000610bca6020830184610e75565b600060208284031215610ec657600080fd5b5035919050565b80356001600160a01b0381168114610ee457600080fd5b919050565b60008060408385031215610efc57600080fd5b610f0583610ecd565b946020939093013593505050565b600080600060608486031215610f2857600080fd5b610f3184610ecd565b9250610f3f60208501610ecd565b9150604084013590509250925092565b600060208284031215610f6157600080fd5b610bca82610ecd565b60008060408385031215610f7d57600080fd5b610f8683610ecd565b915060208301358015158114610f9b57600080fd5b809150509250929050565b634e487b7160e01b600052604160045260246000fd5b600067ffffffffffffffff80841115610fd757610fd7610fa6565b604051601f8501601f19908116603f01168101908282118183101715610fff57610fff610fa6565b8160405280935085815286868601111561101857600080fd5b858560208301376000602087830101525050509392505050565b6000806000806080858703121561104857600080fd5b61105185610ecd565b935061105f60208601610ecd565b925060408501359150606085013567ffffffffffffffff81111561108257600080fd5b8501601f8101871361109357600080fd5b6110a287823560208401610fbc565b91505092959194509250565b600080604083850312156110c157600080fd5b6110ca83610ecd565b9150602083013567ffffffffffffffff8111156110e657600080fd5b8301601f810185136110f757600080fd5b61110685823560208401610fbc565b9150509250929050565b6000806040838503121561112357600080fd5b61112c83610ecd565b915061113a60208401610ecd565b90509250929050565b600181811c9082168061115757607f821691505b60208210810361117757634e487b7160e01b600052602260045260246000fd5b50919050565b60006001600160801b038083168181036111a757634e487b7160e01b600052601160045260246000fd5b6001019392505050565b6001600160a01b03858116825284166020820152604081018390526080606082018190526000906111e490830184610e75565b9695505050505050565b60006020828403121561120057600080fd5b8151610bca81610e1b565b6000835161121d818460208801610e51565b835190830190611231818360208801610e51565b01949350505050565b601f8211156103b357600081815260208120601f850160051c810160208610156112615750805b601f850160051c820191505b818110156112805782815560010161126d565b505050505050565b815167ffffffffffffffff8111156112a2576112a2610fa6565b6112b6816112b08454611143565b8461123a565b602080601f8311600181146112eb57600084156112d35750858301515b600019600386901b1c1916600185901b178555611280565b600085815260208120601f198616915b8281101561131a578886015182559484019460019091019084016112fb565b50858210156113385787850151600019600388901b60f8161c191681555b5050505050600190811b0190555056fea2646970667358221220c55ff3b271bc7c238d11961107d2694f96f54c47feeeba33c74e02ded20ca8fd64736f6c6343000814003360806040523480156200001157600080fd5b5060405162000fc738038062000fc7833981016040819052620000349162000357565b8383600362000044838262000472565b50600462000053828262000472565b5050600580546001600160a81b0319163360ff60a01b191617600160a01b60ff8516021790555062000086328362000090565b505050506200069b565b6005546001600160a01b03163314620000e55760405162461bcd60e51b81526020600482015260126024820152712737ba1021b7b73a3930b1ba1027bbb732b960711b60448201526064015b60405180910390fd5b6005546000906200010290600160a01b900460ff16600a62000653565b6200010e90836200066b565b90506200011c838262000121565b505050565b6001600160a01b0382166200014d5760405163ec442f0560e01b815260006004820152602401620000dc565b6200015b600083836200015f565b5050565b6001600160a01b0383166200018e57806002600082825462000182919062000685565b90915550620002029050565b6001600160a01b03831660009081526020819052604090205481811015620001e35760405163391434e360e21b81526001600160a01b03851660048201526024810182905260448101839052606401620000dc565b6001600160a01b03841660009081526020819052604090209082900390555b6001600160a01b03821662000220576002805482900390556200023f565b6001600160a01b03821660009081526020819052604090208054820190555b816001600160a01b0316836001600160a01b03167fddf252ad1be2c89b69c2b068fc378daa952ba7f163c4a11628f55a4df523b3ef836040516200028591815260200190565b60405180910390a3505050565b634e487b7160e01b600052604160045260246000fd5b600082601f830112620002ba57600080fd5b81516001600160401b0380821115620002d757620002d762000292565b604051601f8301601f19908116603f0116810190828211818310171562000302576200030262000292565b816040528381526020925086838588010111156200031f57600080fd5b600091505b8382101562000343578582018301518183018401529082019062000324565b600093810190920192909252949350505050565b600080600080608085870312156200036e57600080fd5b84516001600160401b03808211156200038657600080fd5b6200039488838901620002a8565b95506020870151915080821115620003ab57600080fd5b50620003ba87828801620002a8565b93505060408501519150606085015160ff81168114620003d957600080fd5b939692955090935050565b600181811c90821680620003f957607f821691505b6020821081036200041a57634e487b7160e01b600052602260045260246000fd5b50919050565b601f8211156200011c57600081815260208120601f850160051c81016020861015620004495750805b601f850160051c820191505b818110156200046a5782815560010162000455565b505050505050565b81516001600160401b038111156200048e576200048e62000292565b620004a6816200049f8454620003e4565b8462000420565b602080601f831160018114620004de5760008415620004c55750858301515b600019600386901b1c1916600185901b1785556200046a565b600085815260208120601f198616915b828110156200050f57888601518255948401946001909101908401620004ee565b50858210156200052e5787850151600019600388901b60f8161c191681555b5050505050600190811b01905550565b634e487b7160e01b600052601160045260246000fd5b600181815b80851115620005955781600019048211156200057957620005796200053e565b808516156200058757918102915b93841c939080029062000559565b509250929050565b600082620005ae575060016200064d565b81620005bd575060006200064d565b8160018114620005d65760028114620005e15762000601565b60019150506200064d565b60ff841115620005f557620005f56200053e565b50506001821b6200064d565b5060208310610133831016604e8410600b841016171562000626575081810a6200064d565b62000632838362000554565b80600019048211156200064957620006496200053e565b0290505b92915050565b60006200066460ff8416836200059d565b9392505050565b80820281158282048414176200064d576200064d6200053e565b808201808211156200064d576200064d6200053e565b61091c80620006ab6000396000f3fe608060405234801561001057600080fd5b506004361061009e5760003560e01c806340c10f191161006657806340c10f191461012857806370a082311461013d57806395d89b4114610166578063a9059cbb1461016e578063dd62ed3e1461018157600080fd5b806306fdde03146100a3578063095ea7b3146100c157806318160ddd146100e457806323b872dd146100f6578063313ce56714610109575b600080fd5b6100ab6101ba565b6040516100b89190610654565b60405180910390f35b6100d46100cf3660046106be565b61024c565b60405190151581526020016100b8565b6002545b6040519081526020016100b8565b6100d46101043660046106e8565b610266565b600554600160a01b900460ff1660405160ff90911681526020016100b8565b61013b6101363660046106be565b61028a565b005b6100e861014b366004610724565b6001600160a01b031660009081526020819052604090205490565b6100ab610314565b6100d461017c3660046106be565b610323565b6100e861018f366004610746565b6001600160a01b03918216600090815260016020908152604080832093909416825291909152205490565b6060600380546101c990610779565b80601f01602080910402602001604051908101604052809291908181526020018280546101f590610779565b80156102425780601f1061021757610100808354040283529160200191610242565b820191906000526020600020905b81548152906001019060200180831161022557829003601f168201915b5050505050905090565b60003361025a818585610331565b60019150505b92915050565b60003361027485828561033e565b61027f8585856103bc565b506001949350505050565b6005546001600160a01b031633146102de5760405162461bcd60e51b81526020600482015260126024820152712737ba1021b7b73a3930b1ba1027bbb732b960711b60448201526064015b60405180910390fd5b6005546000906102f990600160a01b900460ff16600a6108ad565b61030390836108bc565b905061030f838261041b565b505050565b6060600480546101c990610779565b60003361025a8185856103bc565b61030f8383836001610455565b6001600160a01b0383811660009081526001602090815260408083209386168352929052205460001981146103b657818110156103a757604051637dc7a0d960e11b81526001600160a01b038416600482015260248101829052604481018390526064016102d5565b6103b684848484036000610455565b50505050565b6001600160a01b0383166103e657604051634b637e8f60e11b8152600060048201526024016102d5565b6001600160a01b0382166104105760405163ec442f0560e01b8152600060048201526024016102d5565b61030f83838361052a565b6001600160a01b0382166104455760405163ec442f0560e01b8152600060048201526024016102d5565b6104516000838361052a565b5050565b6001600160a01b03841661047f5760405163e602df0560e01b8152600060048201526024016102d5565b6001600160a01b0383166104a957604051634a1406b160e11b8152600060048201526024016102d5565b6001600160a01b03808516600090815260016020908152604080832093871683529290522082905580156103b657826001600160a01b0316846001600160a01b03167f8c5be1e5ebec7d5bd14f71427d1e84f3dd0314c0f7b2291e5b200ac8c7c3b9258460405161051c91815260200190565b60405180910390a350505050565b6001600160a01b03831661055557806002600082825461054a91906108d3565b909155506105c79050565b6001600160a01b038316600090815260208190526040902054818110156105a85760405163391434e360e21b81526001600160a01b038516600482015260248101829052604481018390526064016102d5565b6001600160a01b03841660009081526020819052604090209082900390555b6001600160a01b0382166105e357600280548290039055610602565b6001600160a01b03821660009081526020819052604090208054820190555b816001600160a01b0316836001600160a01b03167fddf252ad1be2c89b69c2b068fc378daa952ba7f163c4a11628f55a4df523b3ef8360405161064791815260200190565b60405180910390a3505050565b600060208083528351808285015260005b8181101561068157858101830151858201604001528201610665565b506000604082860101526040601f19601f8301168501019250505092915050565b80356001600160a01b03811681146106b957600080fd5b919050565b600080604083850312156106d157600080fd5b6106da836106a2565b946020939093013593505050565b6000806000606084860312156106fd57600080fd5b610706846106a2565b9250610714602085016106a2565b9150604084013590509250925092565b60006020828403121561073657600080fd5b61073f826106a2565b9392505050565b6000806040838503121561075957600080fd5b610762836106a2565b9150610770602084016106a2565b90509250929050565b600181811c9082168061078d57607f821691505b6020821081036107ad57634e487b7160e01b600052602260045260246000fd5b50919050565b634e487b7160e01b600052601160045260246000fd5b600181815b808511156108045781600019048211156107ea576107ea6107b3565b808516156107f757918102915b93841c93908002906107ce565b509250929050565b60008261081b57506001610260565b8161082857506000610260565b816001811461083e576002811461084857610864565b6001915050610260565b60ff841115610859576108596107b3565b50506001821b610260565b5060208310610133831016604e8410600b8410161715610887575081810a610260565b61089183836107c9565b80600019048211156108a5576108a56107b3565b029392505050565b600061073f60ff84168361080c565b8082028115828204841417610260576102606107b3565b80820180821115610260576102606107b356fea2646970667358221220a8efbebf5c479c847c3495213201c092174cca81fea12821f98da407a91bda9764736f6c63430008140033a2646970667358221220574703cc97a3436d09ba947b5515ad2dacfe0baba79f0513826adf9d7a659ed564736f6c63430008140033",
  "linkReferences": {},
  "deployedLinkReferences": {}
}